:100000000C9439000C9461000C9461000C94FF0472
:100010000C9427050C944F050C9461000C9461001E
:100020000C9461000C948D080C9461000C94680889
:100030000C9461000C9461000C9461000C946100BC
:100040000C9443080C9461000C9461000C946100C2
:100050000C9461000C9461000C9461000C9461009C
:100060000C9461000C9461008105BC08E30C8805C8
:10007000C30811241FBECFEFD8E0DEBFCDBF13E011
:10008000A0E0B1E0ECE9F6E302C005900D92AA3BD6
:10009000B107D9F724E0AAEBB3E001C01D92AD305F
:1000A000B207E1F710E0C7E3D0E004C02197FE01FA
:1000B0000E949215C433D107C9F70E94EA0C0C9430
:1000C0003F1B0C940000A091BA03B091BB031097A2
:1000D00069F0ED91FC91119712968D919C91139777
:1000E0009093BB038093BA030995EDCF0895CF9306
:1000F000DF93EC0184E090E00E949815009781F076
:10010000FC01D183C0832091BA033091BB033383B8
:1001100022839093BB038093BA0380E090E002C0F7
:1001200081E090E0DF91CF910895FC010FB6F89443
:100130006091090470910A0480910B0490910C0461
:100140000FBE309721F0608371838283938308957B
:100150008CE291E09093BD038093BC0308958AE004
:1001600008958FEF93E0089560E070E080EA90E4F6
:1001700008950F93FC018281882309F44AC06630F8
:1001800010F4982F01C090E0911105C06E3018F066
:10019000643108F4982F9923C9F1663008F06E5045
:1001A000606460937C00EAE7F0E08081806880838F
:1001B000808180648083808181608083808182608F
:1001C000808380818460808320917A0030E040E0E9
:1001D00050E060E070E080E090E004E00E946A158A
:1001E000217030E040E050E060E070E080E090E0BE
:1001F000A0E00E94861541F3EAE7F0E0808180618B
:100200008083809178009091790005C080E090E033
:1002100002C080E090E00F9108950E94B900BC01F7
:1002200080E090E00E94171420E030EC4FE754E4A7
:100230000E946F1308950E940D0120E030E040EA13
:1002400050E40E94CE14089581E00895FC0182815B
:100250000895FC01628308952CE231E0FC013183B2
:10026000208308952CE231E0FC013183208363E098
:1002700070E00E94EE12089526E431E0FC01318323
:100280002083128260E00E94B90008958091BF032C
:10029000811112C08FEB93E00E94F012892B61F064
:1002A0008CEB93E00E943C018FEB93E00E94F912EB
:1002B00088EA90E00E9477008CEB93E0089580E656
:1002C00091E09093C8038093C703089581E0089557
:1002D000FC0182810895FC0162830895640F711D01
:1002E00081E06115744008F080E008950F93FB01F0
:1002F0002FB330E040E050E060E070E080E090E05C
:1003000001E00E946A15217030E040E050E060E0BA
:1003100070E080E090E0A0E00E94861549F7F2BD11
:10032000E1BD8FB381608FBB80B50F91089520E64A
:1003300031E0FC0131832083089520E631E0FC01A7
:100340003183208363E070E00E94EE1208950F93E2
:10035000CF93DF93EB01E42F2FB330E040E050E088
:1003600060E070E080E090E001E00E946A1521709A
:1003700030E040E050E060E070E080E090E0A0E03D
:100380000E94861549F7D2BDC1BDE0BD0E94EC12A6
:100390008FB384608FBB8FB382608FBB0E94EA12E1
:1003A000DF91CF910F91089524E731E0FC01318373
:1003B0002083128208958091CA03811112C08AECB1
:1003C00093E00E94F012892B61F087EC93E00E9489
:1003D000D4018AEC93E00E94F9128FE591E00E942B
:1003E000770087EC93E0089521E0FC0182819381FE
:1003F000892B09F420E0822F08950F93DC011496D5
:100400000C9114971296ED91FC9113970480F5814D
:10041000E02D208130E040E050E060E070E080E0DE
:1004200090E00E946A15822F81700F9108950F93BA
:100430006623C9F0DC0114960C9114971296ED9185
:10044000FC9113970280F381E02DA08121E030E040
:1004500040E050E060E070E080E090E00E944F15E6
:100460002A2B208315C0FC0104810280F381E02D3A
:10047000A281B381EC9121E030E040E050E060E007
:1004800070E080E090E00E944F152095E223EC930D
:100490000F9108950F93DC0114960C911497129606
:1004A000ED91FC9113970480F581E02DA08121E06E
:1004B00030E040E050E060E070E080E090E00E94DA
:1004C0004F152A2B20830F9108950F936623B1F0C7
:1004D000DC011296ED91FC9113970085E8E6F0E0BF
:1004E000A08121E030E040E050E060E070E080E09A
:1004F00090E00E944F152A2B208316C0DC01129633
:10050000ED91FC9113970085A8E6B0E0EC9121E015
:1005100030E040E050E060E070E080E090E00E9479
:100520004F152095E223EC930F9108950F93CF93ED
:10053000DF93662349F1EC010E94EA12EA81FB8114
:100540000085E8E6F0E0A08121E030E040E050E006
:1005500060E070E080E090E00E944F152A2B20833D
:100560000C81EA81FB810680F781E02DA08121E0EA
:1005700030E040E050E060E070E080E090E00E9419
:100580004F152A2B208318C0DC0114960C91149768
:100590001296ED91FC911397A681B781EC9121E021
:1005A00030E040E050E060E070E080E090E00E94E9
:1005B0004F152095E223EC93DF91CF910F91089591
:1005C0004F925F926F927F928F929F92AF92BF9263
:1005D000CF92DF92EF92FF920F93CF93DF93EC01D4
:1005E0008CE991E0998388830C81EA81FB81A08169
:1005F000B181EC9121E030E040E050E060E070E05B
:1006000080E090E00E944F152095E223EC930C814E
:10061000EA81FB81A281B381EC9121E030E040E0EE
:1006200050E060E070E080E090E00E944F1520957F
:10063000E223EC930C81E2EDF3E040805180628094
:10064000738021E030E040E050E060E070E080E066
:1006500090E00E944F15822E932EA42EB52E8094EA
:100660009094A094B09484209520A620B7208082F6
:100670009182A282B38260E0CE010E9496021B8228
:100680001A8288E891E099838883DF91CF910F9156
:10069000FF90EF90DF90CF90BF90AF909F908F90A2
:1006A0007F906F905F904F900895CF93DF93EC0110
:1006B0000E94E00265E070E0CE010E94EE12DF9140
:1006C000CF910895883020F08E3020F090E003C064
:1006D00090E001C091E091110FC08E3018F084318C
:1006E00008F491E091110BC0863008F491E0992351
:1006F00049F08AE091E008958EE191E0089584E167
:1007000091E0089580E090E008954F925F926F929B
:100710007F928F929F92AF92BF92CF92DF92EF9291
:10072000FF920F93E82F8431D8F46330D8F48431EA
:10073000A8F48090D2039090D303A090D403B090FB
:10074000D503282D392D4A2D5B2D60E070E080E027
:1007500090E00E2F0E946A15217005C020E003C0B2
:1007600021E001C021E0211128C00E2F8E2F0E9410
:100770006203FC01009721F1A2EDB3E04D905D9082
:100780006D907C90139721E030E040E050E060E015
:1007900070E080E090E00E944F15822E932EA42EF0
:1007A000B52E84289528A628B7288D929D92AD92C3
:1007B000BC9213978E2F9F2F04C080E090E001C061
:1007C0009F2F0F91FF90EF90DF90CF90BF90AF9051
:1007D0009F908F907F906F905F904F9008950F93B0
:1007E0006130C9F4DC0114960C9114971296ED91C6
:1007F000FC9113970280F381E02DA08121E030E08D
:1008000040E050E060E070E080E090E00E944F1532
:100810002A2B208317C06230A9F4FC0104810280D6
:10082000F381E02D0190F081E02DA08121E030E006
:1008300040E050E060E070E080E090E00E944F1502
:100840002A2B20830F91089526E0FC0111922A950E
:10085000E9F708950E942404089581E0633071054A
:1008600008F080E00895EF92FF920F931F93CF93CB
:10087000DF938C017B01EA01BA010E942D048823D9
:1008800021F0E114F10419F403C081E001C080E01B
:10089000811108C0CC0FDD1FC00FD11FF982E88283
:1008A00081E001C080E0DF91CF911F910F91FF9017
:1008B000EF900895DC011296ED91FC911397028060
:1008C000F381E02D908185B1981307C040E050E09E
:1008D00086ED93E00E9433040895908188B19813C7
:1008E00007C041E050E086ED93E00E943304089594
:1008F00090818BB1981306C042E050E086ED93E002
:100900000E9433040895EF92FF920F931F93CF93A9
:10091000DF938C01C62FD42F79018CE991E0F80187
:1009200091838083642F8C2F0E9485039C01F801A2
:1009300093838283C83020F0CE3020F090E003C053
:1009400090E001C091E0992311F0C8500FC0CE3063
:1009500018F0C43108F491E0992311F0CE5006C08C
:10096000C63008F491E0911101C0CFEFF801C483C3
:10097000232B59F06D2FC8010E94EF03E114F104FD
:1009800021F0B701C8010E945A04DF91CF911F9155
:100990000F91FF90EF900895660F771F860F971FB6
:1009A000FC012081318181E0232B09F480E008954E
:1009B000EF92FF921F93CF93DF937C01EB010E9494
:1009C0002D04182F882341F0BE01C7010E94CC04DA
:1009D000882319F010E001C011E0111109C0CC0FFB
:1009E000DD1FCE0DDF1DE881F981099581E001C091
:1009F00080E0DF91CF911F91FF90EF9008951F92BB
:100A00000F920FB60F9211242F933F934F935F9342
:100A10006F937F938F939F93AF93BF93EF93FF93C6
:100A200060E070E086ED93E00E94D804FF91EF91C2
:100A3000BF91AF919F918F917F916F915F914F91F6
:100A40003F912F910F900FBE0F901F9018951F92FE
:100A50000F920FB60F9211242F933F934F935F93F2
:100A60006F937F938F939F93AF93BF93EF93FF9376
:100A700061E070E086ED93E00E94D804FF91EF9171
:100A8000BF91AF919F918F917F916F915F914F91A6
:100A90003F912F910F900FBE0F901F9018951F92AE
:100AA0000F920FB60F9211242F933F934F935F93A2
:100AB0006F937F938F939F93AF93BF93EF93FF9326
:100AC00062E070E086ED93E00E94D804FF91EF9120
:100AD000BF91AF919F918F917F916F915F914F9156
:100AE0003F912F910F900FBE0F901F901895019777
:100AF00039F46F3F7F4F21F486ED93E00E942A0482
:100B000008956FEF7FEF81E090E00E9477050895F0
:100B10006FEF7FEF80E090E00E94770508950F93DC
:100B2000E82F2091C00030E040E050E060E070E04D
:100B300080E090E005E00E946A15217030E040E01E
:100B400050E060E070E080E090E0A0E00E94861558
:100B500041F3E093C6000F91089580EB91E09093EC
:100B6000DD038093DC03089560E875E280E090E0A7
:100B7000089581E00895FC0182810895FC0162835B
:100B80000895CF93DF93EB01FC018281882369F004
:100B90008881882351F00E948F0588818D3019F457
:100BA0008AE00E948F052196F3CFDF91CF910895BF
:100BB00020EB31E0FC0131832083089520EB31E00C
:100BC000FC013183208363E070E00E94EE120895FF
:100BD00022EC31E0FC01318320831282E1ECF0E071
:100BE000808188608083E2ECF0E080818260808395
:100BF00080818460808387E690E09093C500809335
:100C0000C4008DE08093C60008958091DF038111B8
:100C100012C08FED93E00E94F012892B61F08CEDF1
:100C200093E00E94E8058FED93E00E94F9128DEAAF
:100C300095E00E9477008CED93E0089521E0FC019F
:100C400082819381892B09F420E0822F0895FC0191
:100C5000808508950F931F93FC019085992381F05F
:100C6000A281B3810D911D912D913C9144815581BB
:100C700066817781041715072607370718F403C024
:100C800091E001C090E0911109C00280F381E02D54
:100C9000108211821282138281E001C080E01F91D4
:100CA0000F910895FC0164817581868197810E946E
:100CB00017142FE632E143E05EE30E94CE1420E0F9
:100CC00030E040E05FE30E94FE120E94E8130895C6
:100CD000DC011296ED91FC9113970480F581E02DD3
:100CE000108218961C920895CF92DF92EF92FF9295
:100CF000CF93DF93EC016A017B01452B462B472BF9
:100D000011F40E946806C114D104E104F10499F0C1
:100D1000C701B6010E9417142FE632E143E05EE3FB
:100D20000E946F1320E030E040E05FE30E94FE127B
:100D30000E94E81303C060E070E0CB016C837D8308
:100D40008E839F83DF91CF91FF90EF90DF90CF90C4
:100D500008950F93CF93DF93FC0144815581668101
:100D60007781452B462B472BC1F0EC010E94EA12FC
:100D7000EA81FB8106810480F581E02DA08121E0DC
:100D800030E040E050E060E070E080E090E00E9401
:100D90004F152A2B208381E08887DF91CF910F9117
:100DA0000895FC012085222319F00E946806089509
:100DB0000E94A9060895DC011296ED91FC9113970B
:100DC00010821182128213820E94A9060895FC01EA
:100DD0008085882379F00280F381E02D4081518164
:100DE000628173814F5F5F4F6F4F7F4F40835183AD
:100DF0006283738308950097D9F0DC011496ED9116
:100E0000FC911597108217962C91213031F018F033
:100E1000223051F00BC015BC09C010928100109215
:100E200089001092880002C01092B1000E94301612
:100E30000895CF93C82F88E090E00E9498150097FE
:100E4000A9F1C13069F018F0C230D9F024C02EE603
:100E500030E0FC0135832483168222E025BD20C0CA
:100E60002FE630E0FC013583248321E026832AE04D
:100E70002093810020E031E03093890020938800A6
:100E80000FC020E730E0FC0135832483168222E086
:100E90002093B10005C00E94301680E090E006C0AB
:100EA000FC011082118212821382C783CF910895B0
:100EB00080E0833078F4E82FF0E0EE0FFF1FE3517D
:100EC000FC4F20813181232B19F40E9419070895CA
:100ED0008F5FEFCF80E090E00895DC011296ED91F6
:100EE000FC911397478150E087EE93E00E94330412
:100EF00008958F929F92AF92BF92CF92DF92EF921E
:100F0000FF920F93CF93DF93EC014A015B017901CC
:100F10008EEE91E0998388830E9458076C019B8331
:100F20008A8381149104A104B10499F0C501B4012C
:100F30000E9417142FE632E143E05EE30E946F1334
:100F400020E030E040E05FE30E94FE120E94E813E0
:100F500003C060E070E0CB016C837D838E839F8350
:100F60001886C114D10499F0D6011796EC91F0E0DF
:100F7000EE0FFF1FE351FC4FD183C083B701CE01B9
:100F80000E946D07002319F0CE010E94A906DF918F
:100F9000CF910F91FF90EF90DF90CF90BF90AF90E7
:100FA0009F908F9008950F931F93CF93DF938C01A1
:100FB000EB010E942D04882331F0CC0FDD1FC00F00
:100FC000D11F19821882DF91CF911F910F9108953F
:100FD000DC011296ED91FC911397678170E087EE2A
:100FE00093E00E94D3070895CF93DF93EC018EEE38
:100FF00091E099838883CE010E94E8078A819B81D2
:10100000DC011796EC91F0E0EE0FFF1FE351FC4F6F
:10101000118210820E94FB0684ED91E099838883FF
:10102000DF91CF910895CF93DF93EC010E94F407F5
:1010300069E070E0CE010E94EE12DF91CF91089539
:101040000F931F93CF938330D0F4E82FF0E0EE0F8F
:10105000FF1FE351FC4F008111810115110579F04B
:10106000C82FC8010E94E706C8010E942A068823EB
:1010700031F06C2F70E087EE93E00E94D804CF919E
:101080001F910F9108951F920F920FB60F92112486
:101090002F933F934F935F936F937F938F939F9380
:1010A000AF93BF93EF93FF9380E00E942008FF91DE
:1010B000EF91BF91AF919F918F917F916F915F91D0
:1010C0004F913F912F910F900FBE0F901F90189549
:1010D0001F920F920FB60F9211242F933F934F93AD
:1010E0005F936F937F938F939F93AF93BF93EF9390
:1010F000FF9381E00E942008FF91EF91BF91AF9193
:101100009F918F917F916F915F914F913F912F911F
:101110000F900FBE0F901F9018951F920F920FB651
:101120000F9211242F933F934F935F936F937F936D
:101130008F939F93AF93BF93EF93FF9382E00E94AF
:101140002008FF91EF91BF91AF919F918F917F9177
:101150006F915F914F913F912F910F900FBE0F9024
:101160001F901895019739F46F3F7F4F21F487EE58
:1011700093E00E942A0408956FEF7FEF81E090E0F2
:101180000E94B20808956FEF7FEF80E090E00E9428
:10119000B2080895811521E0920751F170F4803270
:1011A0009105A1F118F44097E9F02EC08034910523
:1011B000D9F080389105D1F027C0811528E0920739
:1011C000E9F040F4811522E09207A1F081159440E6
:1011D00099F01AC0811520E1920791F08115904293
:1011E00089F012C080E0089582E0089583E00895B8
:1011F00084E0089585E0089586E0089587E00895E5
:1012000080E2089581E208958FEF089581E00895C6
:1012100088E092E09093F4038093F303089581E0D3
:101220000895FC0184810895FC01828193810895D1
:1012300028E032E0FC0131832083089528E032E089
:10124000FC013183208365E070E00E94EE12089576
:101250000E94EC12A89584B7877F84BF0E94EA128F
:101260000895CF93C62F0E9428090E94EC12E0E651
:10127000F0E0808180618083808188608083CC23DE
:1012800021F080818860808305C0E0E6F0E0808105
:10129000877F80830E94EA12CF910895FF920F9377
:1012A0001F93CF93DF93613020E27207B8F4EB0114
:1012B0008C01CB010E94CA08F82E0E94EC12E0E6D5
:1012C000F0E0808188618083F0820E94EA120E94AF
:1012D000EA12F801D383C28381E001C080E0DF918C
:1012E000CF911F910F91FF9008952AE132E0FC0108
:1012F0003183208313821282148260E074E00E94A2
:101300004E0908958091F803811112C088EF93E08F
:101310000E94F012892B61F083EF93E00E9475091F
:1013200088EF93E00E94F91288E099E00E9477002C
:1013300083EF93E0089580910204909103040E944A
:101340004212089580910204909103040E94291290
:10135000089580910204909103040E94C31208959D
:10136000019749F46F3F7F4F31F40E940506909337
:101370000104809300040895FC012281338181E0FF
:10138000232B09F080E008956115710549F0DC0117
:10139000ED91FC910484F585E02D099581E0089597
:1013A00080E00895FB0120813181FC01318320839D
:1013B0000895FB014081518122813381220F331F27
:1013C000220F331F240F351FFC0131832083089522
:1013D000CF92DF92EF92FF920F931F93CF93DF9301
:1013E000CDB7DEB7C556D1090FB6F894DEBF0FBE34
:1013F000CDBF6115710581F1D9016A018C0185E6C6
:101400009E012F5F3F4F7901F901282F11922A95F4
:10141000E9F73C9111964C91D6019C9111962C9133
:101420004F933F932F939F937F936F931F928F932D
:10143000FF92EF920E94E417D801ED91FC91048491
:10144000F585E02DB701C80109950FB6F894DEBF08
:101450000FBECDBF81E001C080E0CB59DF4F0FB69A
:10146000F894DEBF0FBECDBFDF91CF911F910F91DA
:10147000FF90EF90DF90CF900895EF92FF920F933F
:101480001F93CF93DF93CDB7DEB7C556D1090FB603
:10149000F894DEBF0FBECDBF6115710541F1FA01B1
:1014A0008C0185E69E012F5F3F4F7901D901282FDE
:1014B0001D922A95E9F7908121812F939F937F9325
:1014C0006F931F928F93FF92EF920E94E417D801BF
:1014D000ED91FC910484F585E02DB701C8010995D3
:1014E0000FB6F894DEBF0FBECDBF81E001C080E033
:1014F000CB59DF4F0FB6F894DEBF0FBECDBFDF91E3
:10150000CF911F910F91FF90EF9008954F925F92AE
:101510006F927F928F929F92AF92BF92EF92FF92C3
:101520000F931F93CF93DF93CDB7DEB72A970FB6F4
:10153000F894DEBF0FBECDBF7C018B01CB010E94B2
:10154000BC09882349F068E272E080910004909120
:1015500001040E94C409A7C068E372E080910004FE
:10156000909101040E94C409B801CE0109960E941D
:10157000D209B801CE0107960E94D90909851A85BA
:101580008F8198858017910709F470C0D701ED917C
:10159000FC910680F781E02DD8014D915D916D9110
:1015A0007C91C70109952B013C01F8016081718193
:1015B0008281938120E030E04AE754E40E94CE1417
:1015C0004B015C0120E030E0A901C301B2010E949F
:1015D000C91488235CF020E030E040E05FE3C30101
:1015E000B2010E94FE120E94E1130AC020E030E026
:1015F00040E05FE3C301B2010E94FD120E94E113CB
:101600007E836D8320E030E0A901C501B4010E9412
:10161000C91488235CF020E030E040E05FE3C501BE
:10162000B4010E94FE120E94E1130AC020E030E0E3
:1016300040E05FE3C501B4010E94FD120E94E11386
:101640007C836B839E012B5F3F4FAE014D5F5F4FED
:101650006AE872E080910004909101040E94E80918
:1016600089859A8504969A87898788CFD701ED91D5
:10167000FC910480F581E02DC70109959A83898347
:10168000AE014F5F5F4F66EB72E080910004909176
:1016900001040E943D0A67EC72E080910004909181
:1016A00001040E94C4092A960FB6F894DEBF0FBE4B
:1016B000CDBFDF91CF911F910F91FF90EF90BF9021
:1016C000AF909F908F907F906F905F904F90089514
:1016D000FC0111821082138212820895CF93DF934E
:1016E000EC01888199810E943016198218821B8230
:1016F0001A82DF91CF9108950E946E0B08950F9387
:101700001F93CF93DF93EC018B01660F771F660F5A
:10171000771F888199810E941517009731F099836E
:1017200088831B830A8381E001C080E0DF91CF9131
:101730001F910F9108950F931F93CF93DF93A0E014
:10174000B0E0AB30B10510F59D01240F351FEC0161
:10175000EA81FB812E173F07C8F4220F331F220FA7
:10176000331FE881F981E20FF31FED01CC0FDD1F7C
:10177000CC0FDD1FC60FD71F088119812A813B813D
:1017800000831183228333831196DBCFDF91CF91C6
:101790001F910F910895CF92DF92EF92FF921F93C6
:1017A000CF93DF93EC016B01EA80FB80B701655FAB
:1017B0007F4F0E947F0B182F882329F0A701B601C5
:1017C000CE010E949B0B812FDF91CF911F91FF9043
:1017D000EF90DF90CF9008952F923F924F925F92BB
:1017E0006F927F928F929F92AF92BF92CF92DF9231
:1017F000EF92FF920F931F93CF93DF93CDB7DEB796
:10180000AE970FB6F894DEBF0FBECDBF3C012B01E3
:101810001A013EA72DA70E94680BF20180819181D9
:10182000A281B38189839A83AB83BC83F1018081D8
:101830009181A281B3818D839E83AF83B887EDA50B
:10184000FEA580819181A281B38189879A87AB8728
:10185000BC87F80180819181A281B3818D879E87A9
:10186000AF87B88BF70180819181A281B381898B89
:101870009A8BAB8BBC8BF60180819181A281B38165
:101880008D8B9E8BAF8BB88FF50180819181A2816A
:10189000B381898F9A8FAB8FBC8FF4018081918146
:1018A000A281B3818D8F9E8FAF8FB8A32596EEADA9
:1018B000FFAD259780819181A281B38189A39AA3ED
:1018C000ABA3BCA32796EEADFFAD27978081918196
:1018D000A281B3818DA39EA3AFA3B8A72996EEAD35
:1018E000FFAD299780819181A281B38189A79AA7B1
:1018F000ABA7BCA7BE016F5F7F4FC3010E94CB0B9C
:10190000AE960FB6F894DEBF0FBECDBFDF91CF917C
:101910001F910F91FF90EF90DF90CF90BF90AF900D
:101920009F908F907F906F905F904F903F902F90FF
:101930000895CF93DF93EC01888199810E9430163E
:10194000198218821B821A82DF91CF9108950E941A
:10195000990C0895CF93DF93EC018FE693E0998380
:101960008883CE014C960E94A70CCE0146960E9419
:101970007C0BCE0140960E947C0B8FE593E099830F
:101980008883DF91CF910895CF93DF93EC018FE6A9
:1019900093E099838883CE014C960E94A70CCE01D8
:1019A00046960E947C0BCE0140960E947C0B8FE5F0
:1019B00093E09983888362E270E0CE010E94EE1288
:1019C000DF91CF9108956FEF7FEF81E090E00E946B
:1019D000B00908954F925F926F927F928F929F927B
:1019E000AF92BF92CF92DF92EF92FF920F931F932D
:1019F000CF93DF93CDB7DEB7C15BD1090FB6F894B3
:101A0000DEBF0FBECDBF8091000490910104DC01C8
:101A1000ED91FC910284F385E02D61E009956AE186
:101A200073E080910004909101040E94C4096996BA
:101A30001CAE1DAE1EAE1FAE69978DEC9CECACECDF
:101A4000BDE365968CAF9DAFAEAFBFAF65978DEC34
:101A50009CECACE4BEE361968CAF9DAFAEAFBFAF84
:101A600061978AE999E9A9E9BEE32D968CAF9DAF0C
:101A7000AEAFBFAF2D978DEC9CECACECBEE32996DE
:101A80008CAF9DAFAEAFBFAF299780E090E0A0E0F4
:101A9000BFE325968CAF9DAFAEAFBFAF25978AE968
:101AA00099E9A9E1BFE321968CAF9DAFAEAFBFAF7F
:101AB000219783E393E3A3E3BFE389AF9AAFABAF8F
:101AC000BCAF8DEC9CECACE4BFE38DAB9EABAFAB9D
:101AD000B8AF86E696E6A6E6BFE389AB9AABABABBA
:101AE000BCAB80E090E0A0E8BFE38DA79EA7AFA7C6
:101AF000B8ABCE018D969F938F9304969F938F934F
:101B000004969F938F939E01275C3F4F490108964F
:101B10005C01DE01AF5BBF4F6D01245F3F4F790178
:101B20008E01075B1F4F285F3F4FAE014F5A5F4F3B
:101B3000BE016B5A7F4F4C960E94EC0B80E090E008
:101B4000A8E4B2EC89A79AA7ABA7BCA780E090E075
:101B5000A0E2B2EC8DA39EA3AFA3B8A780E090E073
:101B6000A0EFB1EC89A39AA3ABA3BCA380E090E063
:101B7000A0EAB1EC8D8F9E8FAF8FB8A380E090E08C
:101B8000A0E2B1EC898F9A8FAB8FBC8F1D8A1E8A21
:101B90001F8A188E80E090E0A0E2B1E4898B9A8BD6
:101BA000AB8BBC8B80E090E0A0EAB1E48D879E8790
:101BB000AF87B88B80E090E0A0EFB1E489879A8787
:101BC000AB87BC8780E090E0A0E2B2E48D839E8387
:101BD000AF83B88780E090E0A8E4B2E489839A8379
:101BE000AB83BC83CE0101969F938F9304969F9302
:101BF0008F9304969F938F9304964C01DE01519628
:101C00005D019E012B5E3F4F69010C967C010C52D9
:101C10001109245F3F4FAE014B5D5F4FBE01675D11
:101C20007F4F8C5B9F4F0E94EC0B20910004309102
:101C30000104AE01435A5F4FBE01675A7F4FCE0188
:101C40008F599F4F0E94FF1046E656E666E67EE3F8
:101C5000CE018F599F4F0E940C100FB6F894DEBF33
:101C60000FBECDBF81110BC067E273E0809100040D
:101C7000909101040E94C4090FEF1FEF88C069E32F
:101C800073E080910004909101040E94C4092E0128
:101C9000B1E64B0E511CBE01675A7F4FC2010E9434
:101CA000860A6DE473E080910004909101040E9423
:101CB000C40920E030E042E069E0CE018D579F4F3B
:101CC0000E94830429EA39E041E068E0CE018857A8
:101CD0009F4F0E94830400E022EA39E04CE251E089
:101CE00060E070E0CE0183579F4F0E9479072BE997
:101CF00039E040E65AEE60E070E0CE018A569F4F30
:101D00000E9479070E9482096C010E94DB015C013C
:101D10000E944601E0900004F09001043E012FE98A
:101D2000620E711C20E12F935F924F924C018E0145
:101D30000A561F4F9E0123573F4FAE0148575F4F32
:101D4000BE016D577F4FC3010E947611709203044C
:101D500060920204C3010E944312C3010E94F31166
:101D6000C8010E94F407CE0183579F4F0E94F407D9
:101D7000CE0188579F4F0E94E002CE018D579F4FA2
:101D80000E94E0020F900F900F9000E010E0CE0153
:101D90008F599F4F0E94AA0CCE01835A9F4F0E94D9
:101DA0007C0BCE01875A9F4F0E947C0BC801CF54F9
:101DB000DF4F0FB6F894DEBF0FBECDBFDF91CF91DE
:101DC0001F910F91FF90EF90DF90CF90BF90AF9059
:101DD0009F908F907F906F905F904F900895CF93DA
:101DE000DF93EC019A01AB016C857D858E859F8523
:101DF0000E94CE14288539854A855B850E94FE1293
:101E0000DF91CF910895FC0184899589009711F4A1
:101E1000828D938D0895FC016085718582859385FF
:101E20000895FC0164857585868597850895809160
:101E3000040481110AC080E090E00E949500CB016B
:101E40000E940A1781E08093040408950E940517F8
:101E5000BC01990F880B990B0E94191420E03EEFEA
:101E60004FEF56E40E946F130895FC018281938125
:101E70000895FC0180819181660F771F860F971F5F
:101E80000895AF92BF92CF92DF92EF92FF920F939D
:101E90001F93CF93DF93EC0100E010E0CE010E948E
:101EA000350F0817190738F50E9405177C01CE0178
:101EB0000E94350FBC01C7010E943B157C01B8018F
:101EC000CE010E94390F6C01FC01A080B180B701E6
:101ED000CE010E94390FFC0180819181F60191832E
:101EE0008083B701CE010E94390FFC01B182A0822C
:101EF0000F5F1F4FD3CFDF91CF911F910F91FF90B5
:101F0000EF90DF90CF90BF90AF900895FC01828159
:101F100093810895FC011182108213821282089528
:101F20000F931F93CF93DF93EC018B01660F771F05
:101F3000888199810E941517009731F099838883D1
:101F40001B830A8381E001C080E0DF91CF911F9164
:101F50000F910895FC0180819181660F771F660FB4
:101F6000771F860F971F0895CF92DF92EF92FF920F
:101F70000F931F93CF93DF938C01C0E0D0E0F80163
:101F800086819781C817D90788F5BE01C801469692
:101F90000E94AA0F7C01BE01F801848195810E94F4
:101FA000AA0FFC012081318142815381F7016081B8
:101FB0007181828193810E94FD126B017C0120E07E
:101FC00030E0A9010E946A13882324F4F7FAF09400
:101FD000F7F8F09427E137EB41ED58E3C701B6017C
:101FE0000E94C914181624F02196C9CF81E001C0BF
:101FF00080E0DF91CF911F910F91FF90EF90DF90E4
:10200000CF900895FC0180819181660F771F660F44
:10201000771F860F971F08952F923F924F925F92DE
:102020006F927F928F929F92AF92BF92CF92DF92E8
:10203000EF92FF920F931F93CF93DF9300D000D0C6
:1020400000D0CDB7DEB79E838D8349835A836B83DF
:102050007C8320E030E0A90169817A818B819C81B9
:102060000E946A1318160CF09FC02D803E808CE1F0
:10207000280E311CC1010E94410FC12CD12CED81D1
:10208000FE8186819781C816D90608F07FC0B60107
:10209000C1010E94390FFC0100811181ED81FE8197
:1020A000E280F380B801C7010E94AA0FFC014081C1
:1020B0005181628173818D819E810E94EF0E4B015F
:1020C0005C01B801ED81FE81848195810E94AA0F97
:1020D000FC016081718182819381A50194010E943C
:1020E000FD129B01AC01ED81FE814084518462842C
:1020F000738469817A818B819C810E94CE144B010B
:102100005C019B01AC01C301B2010E94FE12ED8192
:10211000FE816087718782879387448455846684B3
:102120007784B801C7010E94AA0FFC012081318188
:1021300042815381C501B4010E94CE149B01AC01C0
:10214000C301B2010E94FE12ED81FE816487758792
:1021500086879787B801CF0146960E9402105C01DE
:10216000B801C7010E94AA0FFC0140815181628120
:1021700073818D819E810E94EF0EF50160837183D2
:1021800082839383FFEFCF1ADF0A79CFED81FE813F
:10219000848995890196958B848BCF010E94B40F19
:1021A000882309F462CF01C080E026960FB6F89428
:1021B000DEBF0FBECDBFDF91CF911F910F91FF907A
:1021C000EF90DF90CF90BF90AF909F908F907F90D7
:1021D0006F905F904F903F902F9008950F931F93B3
:1021E000CF93DF93EC018B010E94680BB801CE0105
:1021F0000E947F0BDF91CF911F910F910895CF9295
:10220000DF92EF92FF920F931F93CF93DF938C0196
:102210006B01CA01E9012FE633E0F8013183208325
:1022200073836283558344830E94860F7C01C601B9
:102230000E94860FE816F90618F0282F892F02C091
:102240002E2D8F2DF80126838783C80140960E948A
:10225000680BF801158A148A66817781C801469651
:102260000E94EE10F801138E128E7801FCE1EF0E41
:10227000F11CC7010E948A0FF801D1A3C0A3E88115
:10228000F9810284F385E02D61E0CE0109950E9479
:10229000170F0E94260FF801608771878287938746
:1022A0000E94260FF8016487758786879787668165
:1022B0007781C7010E94900FC0E0D0E0F8018681CD
:1022C0009781C817D90748F4BE01C7010E94390F8A
:1022D000FC01D183C0832196F1CFDF91CF911F9173
:1022E0000F91FF90EF90DF90CF9008956F927F92C3
:1022F0008F929F92AF92BF92CF92DF92EF92FF9216
:102300000F931F93CF93DF93CDB7DEB73C01CA0184
:10231000D30111967C936E9313965C934E93129710
:1023200015963C932E93149717961C930E9316971D
:102330001996FC92EE9218971B96DC92CE921A9701
:102340001D96BC92AE921C971F969C928E921E97E1
:1023500029893A8951963C932E9350972B8952960E
:102360002C93DA01ED91FC910484F585E02D61E078
:102370000995F30180859185DC01ED91FC91028442
:10238000F385E02D61E00995F30182859385DC01F9
:10239000ED91FC910084F185E02D61E00995F30158
:1023A00086819781DC01ED91FC910684F785E02D13
:1023B0000995F30186859785DC01ED91FC910488F0
:1023C000F589E02D61E00995DF91CF911F910F9183
:1023D000FF90EF90DF90CF90BF90AF909F908F9045
:1023E0007F906F900895CF93DF93EC01888199815E
:1023F000DC01ED91FC910084F185E02D60E0099510
:102400008A819B81DC01ED91FC910484F585E02DAE
:1024100060E009958C819D81DC01ED91FC91008843
:10242000F189E02D09958E819F81DC01ED91FC9170
:102430000088F189E02D09958A859B85DC01ED9165
:10244000FC910084F185E02D60E00995DF91CF914A
:102450000895CF93DF93EC018C819D81DC01ED9198
:10246000FC910088F189E02D09958A819B81DC012E
:10247000ED91FC910684F785E02D61E00995DF91EF
:10248000CF9108950895EC016BE773E088859985F5
:102490000E94C4098A859B85DC01ED91FC9104842E
:1024A000F585E02D0995F6CFCF92DF92EF92FF925E
:1024B0000F931F93CF93DF9300D0CDB7DEB78C017E
:1024C00060E973E0DC0118968D919C9119970E9448
:1024D000C409F80186859785DC01ED91FC9106849D
:1024E000F785E02DD80152966C910995AB01BC019E
:1024F000F80180899189DC01ED91FC910680F781DA
:10250000E02D09956B017C0120E030E0A9010E94DB
:10251000C91488235CF020E030E040E05FE3C701AD
:10252000B6010E94FE120E94E1130AC020E030E0D2
:1025300040E05FE3C701B6010E94FD120E94E11373
:102540007A836983AE014F5F5F4F61EA73E0F80100
:10255000808591850E943D0AD80116968D919C91A7
:102560001797DC01ED91FC910488F589E02D099520
:102570000F900F90DF91CF911F910F91FF90EF90EF
:10258000DF90CF900895CF93DF93EC018A819B81F8
:10259000DC01ED91FC910684F785E02D60E0099562
:1025A0008C819D81DC01ED91FC910684F785E02D05
:1025B00009958A819B81DC01ED91FC910680F78170
:1025C000E02D0995882319F0CE010E945412DF9165
:1025D000CF91089578940895F894089508950895F2
:1025E000FC0181E090E02081222311F080E090E066
:1025F000089521E0FC01208308955058BB27AA27A5
:102600000E9415130C948F140E94811438F00E94BC
:10261000881420F039F49F3F19F426F40C947E14AA
:102620000EF4E095E7FB0C947814E92F0E94A014B7
:1026300058F3BA17620773078407950720F079F4F7
:10264000A6F50C94C2140EF4E0950B2EBA2FA02D13
:102650000B01B90190010C01CA01A0011124FF274F
:10266000591B99F0593F50F4503E68F11A16F0404A
:10267000A22F232F342F4427585FF3CF4695379549
:102680002795A795F0405395C9F77EF41F16BA0B0E
:10269000620B730B840BBAF09150A1F0FF0FBB1FBC
:1026A000661F771F881FC2F70EC0BA0F621F731F05
:1026B000841F48F4879577956795B795F7959E3F62
:1026C00008F0B0CF9395880F08F09927EE0F9795F3
:1026D000879508950E94541408F481E008950E949B
:1026E00083130C948F140E94881458F00E94811454
:1026F00040F029F45F3F29F00C94781451110C94A8
:10270000C3140C947E140E94A01468F39923B1F3AF
:10271000552391F3951B550BBB27AA276217730707
:10272000840738F09F5F5F4F220F331F441FAA1F9B
:10273000A9F335D00E2E3AF0E0E832D09150504057
:10274000E695001CCAF72BD0FE2F29D0660F771F05
:10275000881FBB1F261737074807AB07B0E809F0EB
:10276000BB0B802DBF01FF2793585F4F3AF09E3F70
:10277000510578F00C9478140C94C3145F3FE4F383
:10278000983ED4F3869577956795B795F7959F5FB3
:10279000C9F7880F911D9695879597F90895E1E0FF
:1027A000660F771F881FBB1F621773078407BA075E
:1027B00020F0621B730B840BBA0BEE1F88F7E095B9
:1027C00008950E94E8136894B1110C94C3140895FD
:1027D0000E94A81488F09F5798F0B92F9927B751F5
:1027E000B0F0E1F0660F771F881F991F1AF0BA95B5
:1027F000C9F714C0B13091F00E94C214B1E008953D
:102800000C94C214672F782F8827B85F39F0B93F2E
:10281000CCF3869577956795B395D9F73EF4909567
:102820008095709561957F4F8F4F9F4F0895E894E5
:1028300009C097FB3EF490958095709561957F4F08
:102840008F4F9F4F9923A9F0F92F96E9BB279395B6
:10285000F695879577956795B795F111F8CFFAF4C6
:10286000BB0F11F460FF1BC06F5F7F4F8F4F9F4FF7
:1028700016C0882311F096E911C0772321F09EE855
:10288000872F762F05C0662371F096E8862F70E0BB
:1028900060E02AF09A95660F771F881FDAF7880F95
:1028A0009695879597F90895990F0008550FAA0BEB
:1028B000E0E8FEEF16161706E807F907C0F0121653
:1028C0001306E407F50798F0621B730B840B950B56
:1028D00039F40A2661F0232B242B252B21F40895AB
:1028E0000A2609F4A140A6958FEF811D811D089548
:1028F00097F99F6780E870E060E008959FEF80ECB3
:10290000089500240A941616170618060906089555
:1029100000240A9412161306140605060895092EBB
:102920000394000C11F4882352F0BB0F40F4BF2B2A
:1029300011F460FF04C06F5F7F4F8F4F9F4F08956A
:1029400057FD9058440F551F59F05F3F71F0479560
:10295000880F97FB991F61F09F3F79F08795089545
:10296000121613061406551FF2CF4695F1DF08C064
:10297000161617061806991FF1CF86957105610581
:1029800008940895E894BB2766277727CB0197F929
:1029900008950E94541408F48FEF08950E94E114E2
:1029A0000C948F140E94811438F00E94881420F037
:1029B000952311F00C9478140C947E1411240C942B
:1029C000C3140E94A01470F3959FC1F3950F50E0BB
:1029D000551F629FF001729FBB27F00DB11D639FD1
:1029E000AA27F00DB11DAA1F649F6627B00DA11D77
:1029F000661F829F2227B00DA11D621F739FB00D1D
:102A0000A11D621F839FA00D611D221F749F33278C
:102A1000A00D611D231F849F600D211D822F762F25
:102A20006A2F11249F5750409AF0F1F088234AF002
:102A3000EE0FFF1FBB1F661F771F881F915050406E
:102A4000A9F79E3F510580F00C9478140C94C314A0
:102A50005F3FE4F3983ED4F3869577956795B795F5
:102A6000F795E7959F5FC1F7FE2B880F911D96950F
:102A7000879597F90895AA1BBB1B51E107C0AA1FB0
:102A8000BB1FA617B70710F0A61BB70B881F991F0F
:102A90005A95A9F780959095BC01CD0108950F93A3
:102AA000083090F0982F872F762F652F542F432FC3
:102AB000322F22270850F4CF220F331F441F551FF7
:102AC000661F771F881F991F0A95B2F70F91089507
:102AD00097FB10F8169400080F93083098F00850F0
:102AE000232F342F452F562F672F782F892F902D86
:102AF000F4CF059497958795779567955795479562
:102B0000379527950A95AAF70F9108950024A7FDF8
:102B100000942A17300540055005600570058005B2
:102B200090050895EE0FFF1F0590F491E02D099494
:102B30000F931F93CF93DF938230910510F482E0BF
:102B400090E0E0910704F091080420E030E0A0E07C
:102B5000B0E0309719F1408151810281138148170B
:102B60005907C8F08417950769F4109731F0129649
:102B70000C93129713961C9327C00093070410938D
:102B8000080422C02115310519F04217530718F423
:102B90009A01BD01EF01DF01F801DBCF21153105FD
:102BA000F9F0281B390B2430310580F48A819B8190
:102BB0006115710521F0FB019383828304C090931A
:102BC000080480930704FE01329644C0FE01E20F20
:102BD000F31F8193919322503109398328833AC09E
:102BE0002091050430910604232B41F42091020129
:102BF00030910301309306042093050420910001D5
:102C0000309101012115310541F42DB73EB74091B6
:102C1000040150910501241B350BE0910504F0914E
:102C20000604E217F307A0F42E1B3F0B2817390701
:102C300078F0AC014E5F5F4F2417350748F04E0F18
:102C40005F1F50930604409305048193919302C043
:102C5000E0E0F0E0CF01DF91CF911F910F91089557
:102C6000CF93DF93009709F481C0FC013297138260
:102C70001282A0910704B0910804109781F420817A
:102C80003181820F931F209105043091060428178B
:102C9000390751F5F0930604E093050467C0ED0190
:102CA00020E030E0CE17DF0740F44A815B819E01CF
:102CB00041155105F1F0EA01F5CFD383C28340817C
:102CC0005181840F951FC817D90759F488819981BC
:102CD000840F951F0296918380838A819B819383C1
:102CE00082832115310529F4F0930804E093070449
:102CF0003DC0E901FB83EA8349915991C40FD51F77
:102D0000EC17FD0761F480819181840F951F029675
:102D1000E90199838883828193819B838A83E0E0A0
:102D2000F0E012968D919C911397009719F0FD0198
:102D3000DC01F7CF8D919C9111979D012E5F3F4F44
:102D4000820F931F2091050430910604281739073C
:102D500069F4309729F4109208041092070402C015
:102D600013821282B0930604A0930504DF91CF91E1
:102D700008958F929F92AF92BF92CF92DF92EF927F
:102D8000FF92CF93DF93EC01688179818A819B81E7
:102D9000611571058105910521F464E279ED8BE5FA
:102DA00097E02DE133EF41E050E00E94A51A490180
:102DB0005A019B01AC01A7EAB1E40E94C41A6B015D
:102DC0007C01ACEEB4EFA50194010E94D21ADC01A3
:102DD000CB018C0D9D1DAE1DBF1DB7FF03C001971C
:102DE000A109B04888839983AA83BB839F77DF9129
:102DF000CF91FF90EF90DF90CF90BF90AF909F90DA
:102E00008F9008950E94B916089586E091E00E947F
:102E1000B9160895A0E0B0E08093060190930701F1
:102E2000A0930801B09309010895A0E0B0E0EBE1A0
:102E3000F7E10C94DB1AEC01009721F4CB010E941E
:102E40009815B4C0FC01E60FF71F9C012250310910
:102E5000E217F30708F4A8C0D9010D911C9111974E
:102E600006171707B0F00530110508F49BC0C8011C
:102E700004978617970708F495C002501109061B9E
:102E8000170B019311936D937C93CF010E94301621
:102E900089C05B01A01AB10A4C01800E911EA0915D
:102EA0000704B0910804612C712CE12CF12C1097CF
:102EB00009F446C08D919C911197A815B905B1F5FB
:102EC0006C0142E0C40ED11CCA14DB0478F14C0141
:102ED0008A189B08640142E0C40ED11C1296BC9073
:102EE00012971396AC91B5E0CB16D10440F0B282A4
:102EF000A38391828082D9016D937C9309C00E5F78
:102F00001F4F800F911FF90191838083EB2DFA2FC2
:102F1000E114F10431F0D7011396FC93EE9312976C
:102F200041C0F0930804E09307043CC0681679069A
:102F300008F43C017D0112960D90BC91A02DB7CFF5
:102F4000809105049091060488169906E1F46616AE
:102F50007706C8F48091000190910101009741F437
:102F60008DB79EB74091040150910501841B950BCC
:102F7000E817F907C8F4F0930604E0930504F90193
:102F8000718360830FC0CB010E9498157C0100976C
:102F900059F0A801BE010E94DB17CE010E94301635
:102FA000C70104C0CE0102C080E090E0CDB7DEB71B
:102FB000EEE00C94F71AFB01DC0102C001900D92C7
:102FC00041505040D8F70895AEE0B0E0EAEEF7E1A6
:102FD0000C94E51A0D891E898F89988D26E02C8323
:102FE0001A83098397FF02C080E090E801979E83CF
:102FF0008D83AE01455E5F4F698D7A8DCE0101965E
:103000000E9414184D815E8157FD0AC02F813885BA
:10301000421753070CF49A01F801E20FF31F1082D4
:103020002E96E4E00C94011BABE0B0E0EAE1F8E19D
:103030000C94D71A6C017B018A01FC01178216825D
:10304000838181FFCCC1CE0101963C01F6019381C1
:10305000F70193FD859193FF81917F01882309F406
:10306000BAC1853239F493FD859193FF81917F0137
:10307000853229F4B60190E00E940B1AE7CF912C1B
:10308000212C312CFFE1F315D8F08B3279F038F494
:10309000803279F08332A1F4232D20611DC08D325E
:1030A00061F0803369F4232D216016C0832D826086
:1030B000382EE32DE4603E2E2AC0F32DF8601DC0AB
:1030C00037FC2DC020ED280F2A3040F08E32B9F4A5
:1030D00036FC81C1232D2064322E19C036FE06C075
:1030E0008AE0989E200D1124922E11C0EAE02E9EB7
:1030F000200D1124222EF32DF0623F2E08C08C36B5
:1031000021F4832D8068382E02C0883641F4F701FF
:1031100093FD859193FF81917F018111B3CF982F0A
:103120009F7D9554933028F40C5F1F4F9FE3998344
:103130000DC0833631F0833771F0833509F059C003
:1031400021C0F801808189830E5F1F4F88248394FA
:10315000912C530113C02801F2E04F0E511CF801CD
:10316000A080B18036FE03C0692D70E002C06FEF11
:103170007FEFC5010E94001A4C018201F32DFF77F9
:103180003F2E16C0280122E0420E511CF801A080FB
:10319000B18036FE03C0692D70E002C06FEF7FEF93
:1031A000C5010E94F5194C01F32DF0683F2E8201F4
:1031B00033FC1BC0822D90E088169906B0F4B6014E
:1031C00080E290E00E940B1A2A94F4CFF50137FCBC
:1031D000859137FE81915F01B60190E00E940B1A44
:1031E00021102A9421E0821A91088114910471F728
:1031F000E8C0843611F0893641F5F80137FE07C082
:1032000060817181828193810C5F1F4F08C0608152
:103210007181072E000C880B990B0E5F1F4FF32D49
:10322000FF763F2E97FF09C0909580957095619528
:103230007F4F8F4F9F4FF0683F2E2AE030E0A30171
:103240000E94471A882E861845C0853731F4232DF1
:103250002F7EB22E2AE030E025C0932D997FB92E23
:103260008F36C1F018F4883579F0B5C0803719F081
:10327000883721F0B0C0E92FE061BE2EB4FE0DC04A
:10328000FB2DF460BF2E09C034FE0AC0292F266032
:10329000B22E06C028E030E005C020E130E002C0D8
:1032A00020E132E0F801B7FE07C0608171818281C0
:1032B00093810C5F1F4F06C06081718180E090E0B8
:1032C0000E5F1F4FA3010E94471A882E8618FB2D00
:1032D000FF773F2E36FE0DC0232D2E7FA22E8914A0
:1032E00058F434FE0BC032FC09C0832D8E7EA82E0C
:1032F00005C0B82CA32C03C0B82C01C0B92CA4FE67
:103300000FC0FE01E80DF11D8081803321F49A2D5C
:10331000997EA92E09C0A2FE06C0B394B39404C03E
:103320008A2D867809F0B394A3FC11C0A0FE06C0D4
:10333000B21488F4280C922C9B180EC0B21460F4BE
:10334000B60180E290E00E940B1AB394F7CFB2145A
:1033500018F42B1802C0982C212CA4FE10C0B60122
:1033600080E390E00E940B1AA2FE17C0A1FC03C0EC
:1033700088E790E002C088E590E0B6010CC08A2D95
:10338000867859F0A1FE02C08BE201C080E2A7FC62
:103390008DE2B60190E00E940B1A891438F4B60150
:1033A00080E390E00E940B1A9A94F7CF8A94F3017D
:1033B000E80DF11D8081B60190E00E940B1A81108A
:1033C000F5CF222009F442CEB60180E290E00E94BF
:1033D0000B1A2A94F6CFF6018681978102C08FEFEF
:1033E0009FEF2B96E2E10C94F31AFC0105906150DB
:1033F00070400110D8F7809590958E0F9F1F08950B
:10340000FC016150704001900110D8F780959095B3
:103410008E0F9F1F08950F931F93CF93DF93FB0190
:10342000238121FD03C08FEF9FEF2CC022FF16C028
:1034300046815781248135814217530744F4A08186
:10344000B1819D012F5F3F4F318320838C93268173
:1034500037812F5F3F4F3783268314C08B01EC01E8
:10346000FB010084F185E02D0995892BE1F6D80157
:1034700016968D919C911797019617969C938E9313
:103480001697CE01DF91CF911F910F910895FA0108
:10349000AA27283051F1203181F1E8946F936E7F93
:1034A0006E5F7F4F8F4F9F4FAF4FB1E03ED0B4E084
:1034B0003CD0670F781F891F9A1FA11D680F791FC5
:1034C0008A1F911DA11D6A0F711D811D911DA11DD6
:1034D00020D009F468943F912AE0269F11243019E6
:1034E000305D3193DEF6CF010895462F4770405D81
:1034F0004193B3E00FD0C9F7F6CF462F4F70405D30
:103500004A3318F0495D31FD4052419302D0A9F78A
:10351000EACFB4E0A6959795879577956795BA9584
:10352000C9F700976105710508959B01AC010A2E4A
:1035300006945795479537952795BA95C9F7620F21
:10354000731F841F951FA01D0895052E97FB1EF461
:1035500000940E94BC1A57FD07D00E940E1B07FC66
:1035600003D04EF40C94BC1A50954095309521959B
:103570003F4F4F4F5F4F089590958095709561959F
:103580007F4F8F4F9F4F08950E94301BA59F900D36
:10359000B49F900DA49F800D911D11240895B7FF35
:1035A0000C94C41A0E94C41A821B930B08952F9284
:1035B0003F924F925F926F927F928F929F92AF92C3
:1035C000BF92CF92DF92EF92FF920F931F93CF9310
:1035D000DF93CDB7DEB7CA1BDB0B0FB6F894DEBFA7
:1035E0000FBECDBF09942A88398848885F846E84CD
:1035F0007D848C849B84AA84B984C884DF80EE8017
:10360000FD800C811B81AA81B981CE0FD11D0FB61F
:10361000F894DEBF0FBECDBFED010895A1E21A2ED2
:10362000AA1BBB1BFD010DC0AA1FBB1FEE1FFF1F66
:10363000A217B307E407F50720F0A21BB30BE40BB6
:10364000F50B661F771F881F991F1A9469F76095FD
:103650007095809590959B01AC01BD01CF010895B7
:10366000A29FB001B39FC001A39F700D811D1124C3
:10367000911DB29F700D811D1124911D08950E940E
:10368000630010E0C7E3D0E004C0FE010E94921581
:0C3690002196C933D107C9F7F894FFCF89
:10369C0000000D042000010000002A002B0029006E
:1036AC006D0002022700280026006C000101240096
:1036BC00250023006B00000000000000000000004B
:1036CC00EF12EF12EF12EF12EF12EF12EF12EF12E6
:1036DC00EF12000000002C013201AF00B100B40069
:1036EC00B9000D011B012401260129010000000075
:1036FC0000000000EF12EF12EF12EF12EF12EF12B8
:10370C000000000097019D01660168016B016E01CC
:10371C00A70176010000000000000000EF12EF127C
:10372C00EF12EF12EF12EF1200000000E00255034F
:10373C00F401FD0117024A02960265020000000026
:10374C0000000000EF12EF12EF12EF12EF12000068
:10375C000000D805DE05B405B905BB05BE05C105DD
:10376C000000000000000000EF12EF12EF12EF1249
:10377C00EF12EF12EF12EF12EF1200000000F4073D
:10378C0013081E0627062A0652067406A9066806A2
:10379C00D106DB060000000000000000EF12EF1263
:1037AC00EF12EF12EF120000000018091E090F09AA
:1037BC0011093109140928094E6F20696E7075744E
:1037CC002064617461210A002D2D2D2D2D2D2D2DA0
:1037DC002D2D2D2D2D2D2D2D2D2D2D2D2D2D2D2D0D
:1037EC002D2D2D2D2D2D2D2D2D2D2D2D2D2D2D2DFD
:1037FC002D2D2D2D2D2D2D2D2D2D2D2D2D2D2D2DED
:10380C002D2D2D2D2D2D2D2D2D2D2D2D2D2D2D2DDC
:10381C002D2D2D2D2D2D2D2D0A00496E7075743AE0
:10382C00202564206D562C20707265646963746564
:10383C0064206F75747075743A2025642043656C30
:10384C00736975730A0045706F63687320757365CF
:10385C00643A2025640A002D2D2D2D2D2D2D2D2D76
:10386C002D2D2D2D2D2D2D2D2D2D2D2D2D2D2D2D7C
:10387C002D2D2D2D2D2D2D2D2D2D2D2D2D2D2D2D6C
:10388C002D2D2D2D2D2D2D2D2D2D2D2D2D2D2D2D5C
:10389C002D2D2D2D2D2D2D2D2D2D2D2D2D2D2D2D4C
:1038AC002D2D2D2D2D2D2D0A0A0048656C6C6F20A9
:1038BC0074686572652100547261696E696E672067
:1038CC006661696C6564210A00547261696E696E87
:1038DC00672066696E6973686564210A0048656CC7
:1038EC006C6F2C204A6F626F210A000000000000F0
:1038FC00000000EF12EF12EF12EF1200000000AA0E
:10390C000CC40C030FEF0E0B0F110F52756E6E697A
:10391C006E67207468652073797374656D210A0075
:10392C00427574746F6E2070726573736564210ACE
:10393C00005468652074656D70657261747572658C
:0A394C002069733A202564200A0068
:00000001FF
