S01A000041546D656761333238505F666163746F72792E7372656397
S11300000C9439000C9461000C9461000C94EA0087
S11300100C9412010C943A010C9461000C9461004C
S11300200C9461000C94B2020C9461000C948D0247
S11300300C9461000C9461000C9461000C946100B8
S11300400C9468020C9461000C9461000C9461009F
S11300500C9461000C9461000C9461000C94610098
S11300600C9461000C9461006C01E102A907730116
S1130070E80211241FBECFEFD8E0DEBFCDBF12E0EF
S1130080A0E0B1E0ECEEF4E202C005900D92AC36D3
S1130090B107D9F722E0ACE6B2E001C01D92A6395F
S11300A0B207E1F710E0C7E3D0E004C02197FE01F6
S11300B00E94BA0CC433D107C9F70E9403060C94FA
S11300C067120C940000A0916C02B0916D0210971D
S11300D069F0ED91FC91119712968D919C91139773
S11300E090936D0280936C020995EDCF0895CF93A0
S11300F0DF93EC0184E090E00E94C00C009781F053
S1130100FC01D183C08320916C0230916D02338352
S1130110228390936D0280936C0280E090E002C091
S113012081E090E0DF91CF910895FC010FB6F8943F
S11301306091920270919302809194029091950241
S11301400FBE309721F06083718382839383089577
S113015026E0FC0111922A95E9F708950E94A8006F
S1130160089581E06330710508F080E00895660F1A
S1130170771F860F971FFC012081318181E0232B9B
S113018009F480E00895EF92FF921F93CF93DF93D9
S11301907C01EB010E94B100182F882341F0BE01BD
S11301A0C7010E94B700882319F010E001C011E0D4
S11301B0111109C0CC0FDD1FCE0DDF1DE881F981BF
S11301C0099581E001C080E0DF91CF911F91FF90FC
S11301D0EF9008951F920F920FB60F9211242F9350
S11301E03F934F935F936F937F938F939F93AF93BB
S11301F0BF93EF93FF9360E070E08EE692E00E947D
S1130200C300FF91EF91BF91AF919F918F917F9127
S11302106F915F914F913F912F910F900FBE0F906F
S11302201F9018951F920F920FB60F9211242F93BF
S11302303F934F935F936F937F938F939F93AF936A
S1130240BF93EF93FF9361E070E08EE692E00E942B
S1130250C300FF91EF91BF91AF919F918F917F91D7
S11302606F915F914F913F912F910F900FBE0F901F
S11302701F9018951F920F920FB60F9211242F936F
S11302803F934F935F936F937F938F939F93AF931A
S1130290BF93EF93FF9362E070E08EE692E00E94DA
S11302A0C300FF91EF91BF91AF919F918F917F9187
S11302B06F915F914F913F912F910F900FBE0F90CF
S11302C01F901895019739F46F3F7F4F21F48EE604
S11302D092E00E94AE0008956FEF7FEF81E090E01E
S11302E00E94620108956FEF7FEF80E090E00E942A
S11302F0620108950F93E82F2091C00030E040E0A0
S113030050E060E070E080E090E005E00E94920C34
S1130310217030E040E050E060E070E080E090E088
S1130320A0E00E94AE0C41F3E093C6000F91089543
S11303308EE091E09093750280937402089560E8D2
S113034075E280E090E0089581E00895FC018281E7
S11303500895FC0162830895CF93DF93EB01FC01C0
S11303608281882369F08881882351F00E947A0170
S113037088818D3019F48AE00E947A012196F3CFA6
S1130380DF91CF9108952EE031E0FC013183208389
S113039008952EE031E0FC013183208363E070E0B6
S11303A00E942F0A089520E231E0FC01318320836A
S11303B01282E1ECF0E0808188608083E2ECF0E07E
S11303C080818260808380818460808387E690E07E
S11303D09093C5008093C4008DE08093C600089577
S11303E080917702811112C087E792E00E94310A5E
S11303F0892B61F084E792E00E94D30187E792E0C1
S11304000E943A0A88E991E00E94770084E792E02A
S113041008950F931F93FC019085992381F0A28185
S1130420B3810D911D912D913C914481558166813B
S11304307781041715072607370718F403C091E0DE
S113044001C090E0911109C00280F381E02D108277
S113045011821282138281E001C080E01F910F910A
S11304600895FC018085882379F00280F381E02DD2
S113047040815181628173814F5F5F4F6F4F7F4F26
S1130480408351836283738308950F931F93CF93A3
S11304908330D0F4E82FF0E0EE0FFF1FEB57FD4F51
S11304A0008111810115110579F0C82FC8010E943E
S11304B03102C8010E940902882331F06C2F70E0D8
S11304C08FE792E00E94C300CF911F910F9108958E
S11304D01F920F920FB60F9211242F933F934F93B5
S11304E05F936F937F938F939F93AF93BF93EF9398
S11304F0FF9380E00E944502FF91EF91BF91AF917D
S11305009F918F917F916F915F914F913F912F9127
S11305100F900FBE0F901F9018951F920F920FB659
S11305200F9211242F933F934F935F936F937F9375
S11305308F939F93AF93BF93EF93FF9381E00E94B8
S11305404502FF91EF91BF91AF919F918F917F9160
S11305506F915F914F913F912F910F900FBE0F902C
S11305601F9018951F920F920FB60F9211242F937C
S11305703F934F935F936F937F938F939F93AF9327
S1130580BF93EF93FF9382E00E944502FF91EF91A6
S1130590BF91AF919F918F917F916F915F914F9197
S11305A03F912F910F900FBE0F901F9018950197B8
S11305B039F46F3F7F4F21F48FE792E00E94AE0041
S11305C008956FEF7FEF81E090E00E94D7020895D5
S11305D06FEF7FEF80E090E00E94D70208950197CB
S11305E049F46F3F7F4F31F40E94F00190938C02E5
S11305F080938B020895FC012281338181E0232BB7
S113060009F080E008956115710549F0DC01ED9170
S1130610FC910484F585E02D099581E0089580E03E
S11306200895FB0120813181FC01318320830895E9
S1130630FB014081518122813381220F331F220F1C
S1130640331F240F351FFC01318320830895CF927B
S1130650DF92EF92FF920F931F93CF93DF93CDB767
S1130660DEB7C556D1090FB6F894DEBF0FBECDBFB5
S11306706115710581F1D9016A018C0185E69E013C
S11306802F5F3F4F7901F901282F11922A95E9F73D
S11306903C9111964C91D6019C9111962C914F93BB
S11306A03F932F939F937F936F931F928F93FF9208
S11306B0EF920E940C0FD801ED91FC910484F58512
S11306C0E02DB701C80109950FB6F894DEBF0FBE3F
S11306D0CDBF81E001C080E0CB59DF4F0FB6F89465
S11306E0DEBF0FBECDBFDF91CF911F910F91FF9061
S11306F0EF90DF90CF900895EF92FF920F931F93A6
S1130700CF93DF93CDB7DEB7C556D1090FB6F894B2
S1130710DEBF0FBECDBF6115710541F1FA018C0139
S113072085E69E012F5F3F4F7901D901282F1D9245
S11307302A95E9F7908121812F939F937F936F935B
S11307401F928F93FF92EF920E940C0FD801ED91AC
S1130750FC910484F585E02DB701C80109950FB615
S1130760F894DEBF0FBECDBF81E001C080E0CB595D
S1130770DF4F0FB6F894DEBF0FBECDBFDF91CF9130
S11307801F910F91FF90EF9008954F925F926F9297
S11307907F928F929F92AF92BF92EF92FF920F93AC
S11307A01F93CF93DF93CDB7DEB72A970FB6F89494
S11307B0DEBF0FBECDBF7C018B01CB010E94FB02CB
S11307C0882349F06EE271E080918B0290918C0253
S11307D00E940303A7C06EE371E080918B029091A5
S11307E08C020E940303B801CE0109960E941103F2
S11307F0B801CE0107960E94180309851A858F81D6
S113080098858017910709F470C0D701ED91FC9188
S11308100680F781E02DD8014D915D916D917C9119
S1130820C70109952B013C01F80160817181828126
S1130830938120E030E04AE754E40E940F0C4B011E
S11308405C0120E030E0A901C301B2010E940A0C5E
S113085088235CF020E030E040E05FE3C301B201B4
S11308600E943F0A0E94220B0AC020E030E040E0D0
S11308705FE3C301B2010E943E0A0E94220B7E8301
S11308806D8320E030E0A901C501B4010E940A0C87
S113089088235CF020E030E040E05FE3C501B40170
S11308A00E943F0A0E94220B0AC020E030E040E090
S11308B05FE3C501B4010E943E0A0E94220B7C83BF
S11308C06B839E012B5F3F4FAE014D5F5F4F60E92D
S11308D071E080918B0290918C020E94270389859C
S11308E09A8504969A87898788CFD701ED91FC91E0
S11308F00480F581E02DC70109959A838983AE01AF
S11309004F5F5F4F64EB71E080918B0290918C029A
S11309100E947C0365EC71E080918B0290918C02C3
S11309200E9403032A960FB6F894DEBF0FBECDBF14
S1130930DF91CF911F910F91FF90EF90BF90AF90F7
S11309409F908F907F906F905F904F900895FC01DF
S113095011821082138212820895CF93DF93EC01E7
S1130960888199810E94580D198218821B821A82EB
S1130970DF91CF9108950E94AD0408950F931F93C2
S1130980CF93DF93EC018B01660F771F660F771F00
S1130990888199810E943D0E009731F09983888364
S11309A01B830A8381E001C080E0DF91CF911F9116
S11309B00F9108950F931F93CF93DF93A0E0B0E0BE
S11309C0AB30B10510F59D01240F351FEC01EA8110
S11309D0FB812E173F07C8F4220F331F220F331F4A
S11309E0E881F981E20FF31FED01CC0FDD1FCC0F7D
S11309F0DD1FC60FD71F088119812A813B8100831F
S1130A001183228333831196DBCFDF91CF911F9122
S1130A100F910895CF92DF92EF92FF921F93CF939D
S1130A20DF93EC016B01EA80FB80B701655F7F4FC8
S1130A300E94BE04182F882329F0A701B601CE0115
S1130A400E94DA04812FDF91CF911F91FF90EF90E4
S1130A50DF90CF9008952F923F924F925F926F92C2
S1130A607F928F929F92AF92BF92CF92DF92EF923A
S1130A70FF920F931F93CF93DF93CDB7DEB7AE975B
S1130A800FB6F894DEBF0FBECDBF3C012B011A0197
S1130A903EA72DA70E94A704F20180819181A28123
S1130AA0B38189839A83AB83BC83F1018081918173
S1130AB0A281B3818D839E83AF83B887EDA5FEA504
S1130AC080819181A281B38189879A87AB87BC8712
S1130AD0F80180819181A281B3818D879E87AF8740
S1130AE0B88BF70180819181A281B381898B9A8B24
S1130AF0AB8BBC8BF60180819181A281B3818D8BFC
S1130B009E8BAF8BB88FF50180819181A281B381D7
S1130B10898F9A8FAB8FBC8FF40180819181A281E0
S1130B20B3818D8F9E8FAF8FB8A32596EEADFFADA9
S1130B30259780819181A281B38189A39AA3ABA3D4
S1130B40BCA32796EEADFFAD279780819181A2814A
S1130B50B3818DA39EA3AFA3B8A72996EEADFFAD35
S1130B60299780819181A281B38189A79AA7ABA794
S1130B70BCA7BE016F5F7F4FC3010E940A05AE96FA
S1130B800FB6F894DEBF0FBECDBFDF91CF911F919A
S1130B900F91FF90EF90DF90CF90BF90AF909F9018
S1130BA08F907F906F905F904F903F902F9008951B
S1130BB0CF93DF93EC01888199810E94580D1982AB
S1130BC018821B821A82DF91CF9108950E94D80562
S1130BD00895CF93DF93EC018FE592E099838883A6
S1130BE0CE014C960E94E605CE0146960E94BB04B7
S1130BF0CE0140960E94BB048FE492E099838883DF
S1130C00DF91CF9108958F929F92AF92BF92CF922E
S1130C10DF92EF92FF920F931F93CF93DF93CDB7A1
S1130C20DEB7C058D1090FB6F894DEBF0FBECDBFF2
S1130C3080918B0290918C02DC01ED91FC910284F5
S1130C40F385E02D61E0099568E172E080918B0203
S1130C5090918C020E94030369961CAE1DAE1EAED9
S1130C601FAE69978DEC9CECACECBDE365968CAF44
S1130C709DAFAEAFBFAF65978DEC9CECACE4BEE32B
S1130C8061968CAF9DAFAEAFBFAF61978AE999E92A
S1130C90A9E9BEE32D968CAF9DAFAEAFBFAF2D9744
S1130CA08DEC9CECACECBEE329968CAF9DAFAEAF63
S1130CB0BFAF299780E090E0A0E0BFE325968CAF1A
S1130CC09DAFAEAFBFAF25978AE999E9A9E1BFE32C
S1130CD021968CAF9DAFAEAFBFAF219783E393E373
S1130CE0A3E3BFE389AF9AAFABAFBCAF8DEC9CEC91
S1130CF0ACE4BFE38DAB9EABAFABB8AF86E696E694
S1130D00A6E6BFE389AB9AABABABBCAB80E090E0AB
S1130D10A0E8BFE38DA79EA7AFA7B8ABCE018D9681
S1130D209F938F9304969F938F9304969F938F938F
S1130D309E01275C3F4F490108965C01DE01AF5BD1
S1130D40BF4F6D01245F3F4F79018E01075B1F4F39
S1130D50285F3F4FAE014F5A5F4FBE016B5A7F4F22
S1130D604C960E942B0580E090E0A8E4B2EC89A7A1
S1130D709AA7ABA7BCA780E090E0A0E2B2EC8DA359
S1130D809EA3AFA3B8A780E090E0A0EFB1EC89A345
S1130D909AA3ABA3BCA380E090E0A0EAB1EC8D8F52
S1130DA09E8FAF8FB8A380E090E0A0E2B1EC898F72
S1130DB09A8FAB8FBC8F1D8A1E8A1F8A188E80E083
S1130DC090E0A0E2B1E4898B9A8BAB8BBC8B80E082
S1130DD090E0A0EAB1E48D879E87AF87B88B80E06E
S1130DE090E0A0EFB1E489879A87AB87BC8780E065
S1130DF090E0A0E2B2E48D839E83AF83B88780E065
S1130E0090E0A8E4B2E489839A83AB83BC83CE01E7
S1130E1001969F938F9304969F938F9304969F9329
S1130E208F9304964C01DE0151965D019E012B5E69
S1130E303F4F69010C967C010C521109245F3F4F0E
S1130E40AE014B5D5F4FBE01675D7F4F8C5B9F4F73
S1130E500E942B05AE01435A5F4FBE01675A7F4F74
S1130E60CE018F599F4F0E94C80960918B027091E7
S1130E708C0226E636E646E65EE3CE018F599F4FA6
S1130E800E94CD080FB6F894DEBF0FBECDBF81110E
S1130E900BC065E272E080918B0290918C020E94FB
S1130EA003030FEF1FEF12C067E372E080918B0220
S1130EB090918C020E940303BE01675A7F4FCE01BA
S1130EC08F599F4F0E94C50300E010E0CE018F5957
S1130ED09F4F0E94E905CE01835A9F4F0E94BB0495
S1130EE0CE01875A9F4F0E94BB04C801C058DF4FF0
S1130EF00FB6F894DEBF0FBECDBFDF91CF911F9127
S1130F000F91FF90EF90DF90CF90BF90AF909F90A4
S1130F108F900895CF93DF93EC018FE592E099834E
S1130F208883CE014C960E94E605CE0146960E9427
S1130F30BB04CE0140960E94BB048FE492E09983E7
S1130F40888360E270E0CE010E942F0ADF91CF9186
S1130F5008956FEF7FEF81E090E00E94EF02089523
S1130F60CF93DF93EC019A01AB016C857D858E856F
S1130F709F850E940F0C288539854A855B850E94D0
S1130F803F0ADF91CF910895FC01848995890097E8
S1130F9011F4828D938D0895FC016085718582859D
S1130FA093850895FC0164857585868597850895E4
S1130FB080918D0281110AC080E090E00E9495002A
S1130FC0CB010E94320E81E080938D0208950E942D
S1130FD02D0EBC01990F880B990B0E945A0B20E02F
S1130FE03EEF4FEF56E40E94B00A0895FC0182815F
S1130FF093810895FC0180819181660F771F860F8C
S1131000971F0895AF92BF92CF92DF92EF92FF9213
S11310100F931F93CF93DF93EC0100E010E0CE0118
S11310200E94F6070817190738F50E942D0E7C0157
S1131030CE010E94F607BC01C7010E947C0C7C0112
S1131040B801CE010E94FA076C01FC01A080B180B6
S1131050B701CE010E94FA07FC0180819181F6015B
S113106091838083B701CE010E94FA07FC01B1820B
S1131070A0820F5F1F4FD3CFDF91CF911F910F91AC
S1131080FF90EF90DF90CF90BF90AF900895FC0158
S1131090828193810895FC0111821082138212824D
S11310A008950F931F93CF93DF93EC018B01660F89
S11310B0771F888199810E943D0E009731F09983B2
S11310C088831B830A8381E001C080E0DF91CF9194
S11310D01F910F910895FC0180819181660F771F04
S11310E0660F771F860F971F0895CF92DF92EF92B6
S11310F0FF920F931F93CF93DF938C01C0E0D0E056
S1131100F80186819781C817D90788F5BE01C801FF
S113111046960E946B087C01BE01F801848195818A
S11311200E946B08FC012081318142815381F701C7
S113113060817181828193810E943E0A6B017C01EE
S113114020E030E0A9010E94AB0A882324F4F7FAD6
S1131150F094F7F8F09427E137EB41ED58E3C70139
S1131160B6010E940A0C181624F02196C9CF81E01A
S113117001C080E0DF91CF911F910F91FF90EF901C
S1131180DF90CF900895FC0180819181660F771FD5
S1131190660F771F860F971F08952F923F924F92E5
S11311A05F926F927F928F929F92AF92BF92CF92F3
S11311B0DF92EF92FF920F931F93CF93DF93CDB7FC
S11311C0DEB72A970FB6F894DEBF0FBECDBF8C01F1
S11311D07A8769872D833E834F83588720E030E0E8
S11311E0A9016D817E818F8198850E94AB0A1816B2
S11311F00CF0A3C0C8010E94750881119FC0C801EA
S11312000E94C40701969A838983AE014F5F5F4FA2
S113121064EB71E089859A850E947C03C8014C9631
S11312209C838B830E940208212C312CF801868137
S113123097812816390608F079C0B1018B819C8109
S11312400E94FA07FC01E080F180F801C280D3809B
S1131250B701C6010E946B08FC0140815181628183
S11312607381C8010E94B0074B015C01B701F8010A
S1131270848195810E946B08FC0160817181828167
S11312809381A50194010E943E0A9B01AC01F801DF
S113129040845184628473846D817E818F819885BA
S11312A00E940F0C4B015C019B01AC01C301B20114
S11312B00E943F0AF801608771878287938744847C
S11312C0558466847784B701C6010E946B08FC01CB
S11312D02081318142815381C501B4010E940F0CE8
S11312E09B01AC01C301B2010E943F0AF80164876B
S11312F0758786879787B701C80146960E94C308F9
S11313005C01B701C6010E946B08FC014081518158
S113131062817381C8010E94B007F5016083718303
S113132082839383FFEF2F1A3F0A80CFF8018489C9
S113133095890196958B848B5DCF80E02A960FB6B4
S1131340F894DEBF0FBECDBFDF91CF911F910F91F7
S1131350FF90EF90DF90CF90BF90AF909F908F90D1
S11313607F906F905F904F903F902F9008950F93D0
S11313701F93CF93DF93EC018B010E94A704B80164
S1131380CE010E94BE04DF91CF911F910F91089569
S1131390EF92FF920F931F93CF93DF938C017B0106
S11313A0CA012FE532E0F80131832083738362831D
S11313B0558344830E944708EC01C7010E944708F3
S11313C0C817D90718F0282F892F02C02C2F8D2F6A
S11313D0F80126838783C80140960E94A704F80178
S11313E0158A148A66817781C80146960E94B709D6
S11313F0F801138E128E7801FCE1EF0EF11CC70187
S11314000E944B080E94D8070E94E707F8016087F2
S11314107187828793870E94E707F801648775873D
S11314208687978766817781C7010E945108C0E04B
S1131430D0E0F80186819781C817D90748F4BE0126
S1131440C7010E94FA07FC01D183C0832196F1CF22
S1131450DF91CF911F910F91FF90EF900895089520
S11314600895FC0181E090E02081222311F080E0C6
S113147090E0089521E0FC01208308955058BB2793
S1131480AA270E94560A0C94D00B0E94C20B38F073
S11314900E94C90B20F039F49F3F19F426F40C94F0
S11314A0BF0B0EF4E095E7FB0C94B90BE92F0E94F7
S11314B0E10B58F3BA17620773078407950720F006
S11314C079F4A6F50C94030C0EF4E0950B2EBA2FC8
S11314D0A02D0B01B90190010C01CA01A001112436
S11314E0FF27591B99F0593F50F4503E68F11A16E2
S11314F0F040A22F232F342F4427585FF3CF469573
S113150037952795A795F0405395C9F77EF41F1694
S1131510BA0B620B730B840BBAF09150A1F0FF0F5E
S1131520BB1F661F771F881FC2F70EC0BA0F621F4A
S1131530731F841F48F4879577956795B795F7953A
S11315409E3F08F0B0CF9395880F08F09927EE0FCF
S11315509795879508950E94950B08F481E0089566
S11315600E94C40A0C94D00B0E94C90B58F00E942C
S1131570C20B40F029F45F3F29F00C94B90B5111D0
S11315800C94040C0C94BF0B0E94E10B68F3992398
S1131590B1F3552391F3951B550BBB27AA2762176B
S11315A07307840738F09F5F5F4F220F331F441F78
S11315B0AA1FA9F335D00E2E3AF0E0E832D09150AC
S11315C05040E695001CCAF72BD0FE2F29D0660F99
S11315D0771F881FBB1F261737074807AB07B0E8DC
S11315E009F0BB0B802DBF01FF2793585F4F3AF0E2
S11315F09E3F510578F00C94B90B0C94040C5F3F9A
S1131600E4F3983ED4F3869577956795B795F79567
S11316109F5FC9F7880F911D9695879597F908954F
S1131620E1E0660F771F881FBB1F621773078407EB
S1131630BA0720F0621B730B840BBA0BEE1F88F7FA
S1131640E09508950E94290B6894B1110C94040C40
S113165008950E94E90B88F09F5798F0B92F9927B5
S1131660B751B0F0E1F0660F771F881F991F1AF089
S1131670BA95C9F714C0B13091F00E94030CB1E0DF
S113168008950C94030C672F782F8827B85F39F0DE
S1131690B93FCCF3869577956795B395D9F73EF422
S11316A090958095709561957F4F8F4F9F4F0895CA
S11316B0E89409C097FB3EF49095809570956195E8
S11316C07F4F8F4F9F4F9923A9F0F92F96E9BB279E
S11316D09395F695879577956795B795F111F8CF1A
S11316E0FAF4BB0F11F460FF1BC06F5F7F4F8F4F85
S11316F09F4F16C0882311F096E911C0772321F07B
S11317009EE8872F762F05C0662371F096E8862F12
S113171070E060E02AF09A95660F771F881FDAF769
S1131720880F9695879597F90895990F0008550F96
S1131730AA0BE0E8FEEF16161706E807F907C0F053
S113174012161306E407F50798F0621B730B840B5B
S1131750950B39F40A2661F0232B242B252B21F435
S113176008950A2609F4A140A6958FEF811D811DD5
S1131770089597F99F6780E870E060E008959FEF0F
S113178080EC089500240A94161617061806090614
S1131790089500240A9412161306140605060895E3
S11317A0092E0394000C11F4882352F0BB0F40F46B
S11317B0BF2B11F460FF04C06F5F7F4F8F4F9F4FAB
S11317C0089557FD9058440F551F59F05F3F71F02D
S11317D04795880F97FB991F61F09F3F79F0879594
S11317E00895121613061406551FF2CF4695F1DF1D
S11317F008C0161617061806991FF1CF86957105AD
S1131800610508940895E894BB2766277727CB01E0
S113181097F908950E94950B08F48FEF08950E949C
S1131820220C0C94D00B0E94C20B38F00E94C90BFE
S113183020F0952311F00C94B90B0C94BF0B1124D8
S11318400C94040C0E94E10B70F3959FC1F3950F67
S113185050E0551F629FF001729FBB27F00DB11D30
S1131860639FAA27F00DB11DAA1F649F6627B00DC0
S1131870A11D661F829F2227B00DA11D621F739FA9
S1131880B00DA11D621F839FA00D611D221F749FB7
S11318903327A00D611D231F849F600D211D822FFE
S11318A0762F6A2F11249F5750409AF0F1F0882325
S11318B04AF0EE0FFF1FBB1F661F771F881F915052
S11318C05040A9F79E3F510580F00C94B90B0C943D
S11318D0040C5F3FE4F3983ED4F3869577956795BF
S11318E0B795F795E7959F5FC1F7FE2B880F911D7C
S11318F09695879597F90895AA1BBB1B51E107C0DC
S1131900AA1FBB1FA617B70710F0A61BB70B881F8B
S1131910991F5A95A9F780959095BC01CD0108951A
S113192097FB10F8169400080F93083098F00850AD
S1131930232F342F452F562F672F782F892F902D43
S1131940F4CF05949795879577956795579547951F
S1131950379527950A95AAF70F9108950024A7FDB6
S113196000942A1730054005500560057005800570
S113197090050895EE0FFF1F0590F491E02D099452
S11319800F931F93CF93DF938230910510F482E07D
S113199090E0E0919002F091910220E030E0A0E02C
S11319A0B0E0309719F140815181028113814817C9
S11319B05907C8F08417950769F4109731F0129607
S11319C00C93129713961C9327C0009390021093C4
S11319D0910222C02115310519F04217530718F45A
S11319E09A01BD01EF01DF01F801DBCF21153105BB
S11319F0F9F0281B390B2430310580F48A819B814E
S1131A006115710521F0FB019383828304C09093D7
S1131A10910280939002FE01329644C0FE01E20FCF
S1131A20F31F8193919322503109398328833AC05B
S1131A3020918E0230918F02232B41F420910201D8
S1131A403091030130938F0220938E022091000184
S1131A50309101012115310541F42DB73EB7409174
S1131A60040150910501241B350BE0918E02F09185
S1131A708F02E217F307A0F42E1B3F0B2817390738
S1131A8078F0AC014E5F5F4F2417350748F04E0FD6
S1131A905F1F50938F0240938E028193919302C0F3
S1131AA0E0E0F0E0CF01DF91CF911F910F91089515
S1131AB0CF93DF93009709F481C0FC01329713821E
S1131AC01282A0919002B0919102109781F420812A
S1131AD03181820F931F20918E0230918F0228173B
S1131AE0390751F5F0938F02E0938E0267C0ED0140
S1131AF020E030E0CE17DF0740F44A815B819E018D
S1131B0041155105F1F0EA01F5CFD383C283408139
S1131B105181840F951FC817D90759F48881998179
S1131B20840F951F0296918380838A819B8193837E
S1131B3082832115310529F4F0939102E0939002F8
S1131B403DC0E901FB83EA8349915991C40FD51F34
S1131B50EC17FD0761F480819181840F951F029633
S1131B60E90199838883828193819B838A83E0E05E
S1131B70F0E012968D919C911397009719F0FD0156
S1131B80DC01F7CF8D919C9111979D012E5F3F4F02
S1131B90820F931F20918E0230918F0228173907EC
S1131BA069F4309729F4109291021092900202C0C5
S1131BB013821282B0938F02A0938E02DF91CF9191
S1131BC008958F929F92AF92BF92CF92DF92EF923D
S1131BD0FF92CF93DF93EC01688179818A819B81A5
S1131BE0611571058105910521F464E279ED8BE5B8
S1131BF097E02DE133EF41E050E00E94CD1149011F
S1131C005A019B01AC01A7EAB1E40E94EC116B01FB
S1131C107C01ACEEB4EFA50194010E94FA11DC0141
S1131C20CB018C0D9D1DAE1DBF1DB7FF03C00197D9
S1131C30A109B04888839983AA83BB839F77DF91E6
S1131C40CF91FF90EF90DF90CF90BF90AF909F9097
S1131C508F9008950E94E10D089586E091E00E941E
S1131C60E10D0895A0E0B0E0809306019093070190
S1131C70A0930801B09309010895A0E0B0E0E3E463
S1131C80FEE00C940312EC01009721F4CB010E94B6
S1131C90C00CB4C0FC01E60FF71F9C0122503109AF
S1131CA0E217F30708F4A8C0D9010D911C9111970C
S1131CB006171707B0F00530110508F49BC0C801DA
S1131CC004978617970708F495C002501109061B5C
S1131CD0170B019311936D937C93CF010E94580DC0
S1131CE089C05B01A01AB10A4C01800E911EA0911B
S1131CF09002B0919102612C712CE12CF12C10977F
S1131D0009F446C08D919C911197A815B905B1F5B8
S1131D106C0142E0C40ED11CCA14DB0478F14C01FE
S1131D208A189B08640142E0C40ED11C1296BC9030
S1131D3012971396AC91B5E0CB16D10440F0B28261
S1131D40A38391828082D9016D937C9309C00E5F35
S1131D501F4F800F911FF90191838083EB2DFA2F80
S1131D60E114F10431F0D7011396FC93EE9312972A
S1131D7041C0F0939102E09390023CC0681679064A
S1131D8008F43C017D0112960D90BC91A02DB7CFB3
S1131D9080918E0290918F0288169906E1F466165E
S1131DA07706C8F48091000190910101009741F4F5
S1131DB08DB79EB74091040150910501841B950B8A
S1131DC0E817F907C8F4F0938F02E0938E02F90143
S1131DD0718360830FC0CB010E94C00C7C0100970B
S1131DE059F0A801BE010E94030FCE010E94580DB4
S1131DF0C70104C0CE0102C080E090E0CDB7DEB7D9
S1131E00EEE00C941F12FB01DC0102C001900D9264
S1131E1041505040D8F70895AEE0B0E0E2E1FFE071
S1131E200C940D120D891E898F89988D26E02C83C0
S1131E301A83098397FF02C080E090E801979E838C
S1131E408D83AE01455E5F4F698D7A8DCE0101961B
S1131E500E943C0F4D815E8157FD0AC02F81388559
S1131E60421753070CF49A01F801E20FF31F108292
S1131E702E96E4E00C942912ABE0B0E0E2E4FFE03B
S1131E800C94FF116C017B018A01FC0117821682FC
S1131E90838181FFCCC1CE0101963C01F60193817F
S1131EA0F70193FD859193FF81917F01882309F4C4
S1131EB0BAC1853239F493FD859193FF81917F01F5
S1131EC0853229F4B60190E00E943311E7CF912CBA
S1131ED0212C312CFFE1F315D8F08B3279F038F452
S1131EE0803279F08332A1F4232D20611DC08D321C
S1131EF061F0803369F4232D216016C0832D826044
S1131F00382EE32DE4603E2E2AC0F32DF8601DC068
S1131F1037FC2DC020ED280F2A3040F08E32B9F462
S1131F2036FC81C1232D2064322E19C036FE06C032
S1131F308AE0989E200D1124922E11C0EAE02E9E74
S1131F40200D1124222EF32DF0623F2E08C08C3672
S1131F5021F4832D8068382E02C0883641F4F701BD
S1131F6093FD859193FF81917F018111B3CF982FC8
S1131F709F7D9554933028F40C5F1F4F9FE3998302
S1131F800DC0833631F0833771F0833509F059C0C1
S1131F9021C0F801808189830E5F1F4F88248394B8
S1131FA0912C530113C02801F2E04F0E511CF8018B
S1131FB0A080B18036FE03C0692D70E002C06FEFCF
S1131FC07FEFC5010E9428114C018201F32DFF7798
S1131FD03F2E16C0280122E0420E511CF801A080B9
S1131FE0B18036FE03C0692D70E002C06FEF7FEF51
S1131FF0C5010E941D114C01F32DF0683F2E820192
S113200033FC1BC0822D90E088169906B0F4B6010B
S113201080E290E00E9433112A94F4CFF50137FC5A
S1132020859137FE81915F01B60190E00E943311E2
S113203021102A9421E0821A91088114910471F7E5
S1132040E8C0843611F0893641F5F80137FE07C03F
S113205060817181828193810C5F1F4F08C0608110
S11320607181072E000C880B990B0E5F1F4FF32D07
S1132070FF763F2E97FF09C09095809570956195E6
S11320807F4F8F4F9F4FF0683F2E2AE030E0A3012F
S11320900E946F11882E861845C0853731F4232D90
S11320A02F7EB22E2AE030E025C0932D997FB92EE1
S11320B08F36C1F018F4883579F0B5C0803719F03F
S11320C0883721F0B0C0E92FE061BE2EB4FE0DC008
S11320D0FB2DF460BF2E09C034FE0AC0292F2660F0
S11320E0B22E06C028E030E005C020E130E002C096
S11320F020E132E0F801B7FE07C06081718182817E
S113210093810C5F1F4F06C06081718180E090E075
S11321100E5F1F4FA3010E946F11882E8618FB2D9E
S1132120FF773F2E36FE0DC0232D2E7FA22E89145D
S113213058F434FE0BC032FC09C0832D8E7EA82EC9
S113214005C0B82CA32C03C0B82C01C0B92CA4FE24
S11321500FC0FE01E80DF11D8081803321F49A2D1A
S1132160997EA92E09C0A2FE06C0B394B39404C0FC
S11321708A2D867809F0B394A3FC11C0A0FE06C092
S1132180B21488F4280C922C9B180EC0B21460F47C
S1132190B60180E290E00E943311B394F7CFB214F9
S11321A018F42B1802C0982C212CA4FE10C0B601E0
S11321B080E390E00E943311A2FE17C0A1FC03C08B
S11321C088E790E002C088E590E0B6010CC08A2D53
S11321D0867859F0A1FE02C08BE201C080E2A7FC20
S11321E08DE2B60190E00E943311891438F4B601EF
S11321F080E390E00E9433119A94F7CF8A94F3011C
S1132200E80DF11D8081B60190E00E943311811028
S1132210F5CF222009F442CEB60180E290E00E947C
S113222033112A94F6CFF6018681978102C08FEF8D
S11322309FEF2B96E2E10C941B12FC010590615078
S113224070400110D8F7809590958E0F9F1F0895C8
S1132250FC016150704001900110D8F78095909571
S11322608E0F9F1F08950F931F93CF93DF93FB014E
S1132270238121FD03C08FEF9FEF2CC022FF16C0E6
S113228046815781248135814217530744F4A08144
S1132290B1819D012F5F3F4F318320838C93268131
S11322A037812F5F3F4F3783268314C08B01EC01A6
S11322B0FB010084F185E02D0995892BE1F6D80115
S11322C016968D919C911797019617969C938E93D1
S11322D01697CE01DF91CF911F910F910895FA01C6
S11322E0AA27283051F1203181F1E8946F936E7F51
S11322F06E5F7F4F8F4F9F4FAF4FB1E03ED0B4E042
S11323003CD0670F781F891F9A1FA11D680F791F82
S11323108A1F911DA11D6A0F711D811D911DA11D93
S113232020D009F468943F912AE0269F11243019A3
S1132330305D3193DEF6CF010895462F4770405D3E
S11323404193B3E00FD0C9F7F6CF462F4F70405DED
S11323504A3318F0495D31FD4052419302D0A9F748
S1132360EACFB4E0A6959795879577956795BA9542
S1132370C9F700976105710508959B01AC010A2E08
S113238006945795479537952795BA95C9F7620FDF
S1132390731F841F951FA01D0895052E97FB1EF41F
S11323A000940E94E41157FD07D00E94361207FCE6
S11323B003D04EF40C94E41150954095309521953A
S11323C03F4F4F4F5F4F089590958095709561955D
S11323D07F4F8F4F9F4F08950E945812A59F900DD5
S11323E0B49F900DA49F800D911D11240895B7FFF3
S11323F00C94EC110E94EC11821B930B08952F9204
S11324003F924F925F926F927F928F929F92AF9280
S1132410BF92CF92DF92EF92FF920F931F93CF93CD
S1132420DF93CDB7DEB7CA1BDB0B0FB6F894DEBF64
S11324300FBECDBF09942A88398848885F846E848A
S11324407D848C849B84AA84B984C884DF80EE80D4
S1132450FD800C811B81AA81B981CE0FD11D0FB6DD
S1132460F894DEBF0FBECDBFED010895A1E21A2E90
S1132470AA1BBB1BFD010DC0AA1FBB1FEE1FFF1F24
S1132480A217B307E407F50720F0A21BB30BE40B74
S1132490F50B661F771F881F991F1A9469F76095BB
S11324A07095809590959B01AC01BD01CF01089575
S11324B0A29FB001B39FC001A39F700D811D112481
S11324C0911DB29F700D811D1124911D08950E94CC
S11324D0630010E0C7E3D0E004C0FE010E94BA0C20
S10F24E02196C933D107C9F7F894FFCF47
S11324EC0000960220000100000000000000000023
S11324FC0000300A300A300A300A300A00000000AA
S113250CC301C9019F01A401A601A901AC014E6F2D
S113251C20696E7075742064617461210A002D2D1C
S113252C2D2D2D2D2D2D2D2D2D2D2D2D2D2D2D2DCB
S113253C2D2D2D2D2D2D2D2D2D2D2D2D2D2D2D2DBB
S113254C2D2D2D2D2D2D2D2D2D2D2D2D2D2D2D2DAB
S113255C2D2D2D2D2D2D2D2D2D2D2D2D2D2D2D2D9B
S113256C2D2D2D2D2D2D2D2D2D2D2D2D2D2D0A00DB
S113257C496E7075743A2025642C207072656469F8
S113258C63746564206F75747075743A20256420C7
S113259C6D560A0045706F63687320757365643AF1
S11325AC2025640A002D2D2D2D2D2D2D2D2D2D2D79
S11325BC2D2D2D2D2D2D2D2D2D2D2D2D2D2D2D2D3B
S11325CC2D2D2D2D2D2D2D2D2D2D2D2D2D2D2D2D2B
S11325DC2D2D2D2D2D2D2D2D2D2D2D2D2D2D2D2D1B
S11325EC2D2D2D2D2D2D2D2D2D2D2D2D2D2D2D2D0B
S11325FC2D2D2D2D2D0A0A0048656C6C6F207468E6
S113260C6572652100547261696E696E672066613A
S113261C696C6564210A00547261696E696E672085
S113262C66696E6973686564210A00000000000025
S113263C000000300A300A300A300A00000000E9B9
S10F264C058A07C407B007CC07D20700BA
S9030000FC
